{
  "contractName": "MyContract",
  "abi": [
    {
      "anonymous": false,
      "inputs": [
        {
          "indexed": false,
          "name": "sender",
          "type": "address"
        }
      ],
      "name": "MyEvent1",
      "type": "event"
    },
    {
      "anonymous": false,
      "inputs": [
        {
          "indexed": false,
          "name": "sender",
          "type": "address"
        }
      ],
      "name": "MyEvent2",
      "type": "event"
    },
    {
      "constant": false,
      "inputs": [],
      "name": "initialize",
      "outputs": [],
      "payable": false,
      "stateMutability": "nonpayable",
      "type": "function"
    },
    {
      "constant": true,
      "inputs": [],
      "name": "version",
      "outputs": [
        {
          "name": "",
          "type": "string"
        }
      ],
      "payable": false,
      "stateMutability": "pure",
      "type": "function"
    },
    {
      "constant": false,
      "inputs": [],
      "name": "generateEvent1",
      "outputs": [],
      "payable": false,
      "stateMutability": "nonpayable",
      "type": "function"
    },
    {
      "constant": false,
      "inputs": [],
      "name": "generateEvent2",
      "outputs": [],
      "payable": false,
      "stateMutability": "nonpayable",
      "type": "function"
    }
  ],
  "bytecode": "0x608060405234801561001057600080fd5b50d3801561001d57600080fd5b50d2801561002a57600080fd5b5061025e8061003a6000396000f3fe608060405234801561001057600080fd5b50d3801561001d57600080fd5b50d2801561002a57600080fd5b5060043610610083576000357c0100000000000000000000000000000000000000000000000000000000900480632631cdd91461008857806354fd4d501461009257806380354156146101155780638129fc1c1461011f575b600080fd5b610090610129565b005b61009a61018e565b6040518080602001828103825283818151815260200191508051906020019080838360005b838110156100da5780820151818401526020810190506100bf565b50505050905090810190601f1680156101075780820380516001836020036101000a031916815260200191505b509250505060405180910390f35b61011d6101cb565b005b610127610230565b005b7fcaf62dc31ce67cdd20bfaf7c3612bece699c56140521a9e3439a6acfc0005a4833604051808273ffffffffffffffffffffffffffffffffffffffff1673ffffffffffffffffffffffffffffffffffffffff16815260200191505060405180910390a1565b60606040805190810160405280600281526020017f7630000000000000000000000000000000000000000000000000000000000000815250905090565b7fffa68e49333558cbd1e6117fb13256fc8af4c65e9ae5f99b927cc1ac29bdcd6733604051808273ffffffffffffffffffffffffffffffffffffffff1673ffffffffffffffffffffffffffffffffffffffff16815260200191505060405180910390a1565b56fea165627a7a72305820f6e22fd9787158c1def60b6841a391da047b443a66906001b53fe82b6ec1585d0029",
  "source": "// SPDX-License-Identifier: MIT\npragma solidity >=0.4.22 <0.8.0;\n\ncontract MyContract {\n    event MyEvent1(address sender);\n    event MyEvent2(address sender);\n\n    function initialize() public {\n    }\n\n    function version() external pure returns (string memory) {\n        return \"v0\";\n    }\n\n    function generateEvent1() public {\n        emit MyEvent1(msg.sender);\n    }\n\n    function generateEvent2() public {\n        emit MyEvent2(msg.sender);\n    }\n}\n\n",
  "sourcePath": "/Users/ruix/workfolder/active/tronevent/contracts/MyContract.sol",
  "compiler": {
    "name": "solc",
    "version": "0.5.4+commit.d15a3125.mod.Emscripten.clang"
  },
  "schemaVersion": "2.0.1",
  "updatedAt": "2020-09-24T17:29:05.448Z"
}